:020000040800F2
:1000000068100020D9020008E1020008E30200089D
:1000100000000000000000000000000000000000E0
:10002000000000000000000000000000E5010008E2
:10003000E70200080000000079020008C50200087D
:10004000ED020008ED020008ED020008ED020008D4
:10005000ED020008ED020008ED020008ED020008C4
:10006000ED020008ED0200087D050008BD0500084E
:10007000ED020008ED02000800000000ED0200089B
:1000800000000000ED020008000000000000000079
:10009000ED02000800000000ED020008ED0200087B
:1000A000ED020008ED020008ED020008ED02000874
:1000B000ED020008ED020008ED020008ED02000864
:1000C00000F002F800F044F80CA030C808382418FA
:1000D0002D18A246671EAB4654465D46AC4201D180
:1000E00000F036F87E460F3E0FCCB646012633426E
:1000F00000D0FB1AA246AB46334318476C200000E1
:100100008C200000103A02D378C878C1FAD8520780
:1001100001D330C830C101D504680C6070470000BD
:100120000023002400250026103A01D378C1FBD813
:10013000520700D330C100D50B6070471FB51FBDFB
:1001400010B510BD03B4FFF7FBFF03BC00F0E4F9EA
:1001500000F0E4F81146FFF7F1FF00F025FF044836
:10016000002100F06BFF00F033FF00F0F6F8000014
:10017000E400002080F309887047EFF3098070479E
:10018000684680F3098806480078C00703D1032039
:1001900080F314887047022080F3148870470000B1
:1001A00038210008064B9C46EFF305831B0605D15A
:1001B000EFF31483DB0701D000DF704760470000D6
:1001C000BB100008064B9C46EFF305831B0605D1C8
:1001D000EFF31483DB0701D000DF704760470000B6
:1001E000A9120008EFF309808169891E09780029A6
:1001F0002BD1A6461FC8A4467446E047EFF30983F7
:1002000007C31A4B06CB91421CD0083B00290DD0E6
:10021000EFF3098020388862F0C044464D465646C8
:100220005F46F0C00CB401F043FB0CBC1A60906A4E
:100230001030F0C8A046A946B246BB4680F30988F4
:100240002038F0C80220C043004710B5084A1268A1
:10025000914209D8074C89006458A6461FC8A44695
:10026000F047EFF309840FC410BD00000401002023
:10027000280500082805000801F0FAF9104B06CB04
:1002800091421AD0083BEFF3098020388862F0C011
:1002900044464D4656465F46F0C00CB401F008FB9C
:1002A0000CBC1A60906A1030F0C8A046A946B2464D
:1002B000BB4680F309882038F0C80220C0430047BD
:1002C0000401002001F0A6FBD8E7000000F0F4FED6
:1002D00001F0A0FBD2E7000008488047084800472B
:1002E000FEE7FEE7FEE7FEE7FEE7FEE7FEE70000CB
:1002F00004480549054A064B70470000090E0008EE
:10030000C1000008680A002068100020680C002066
:10031000680C002000487047080A00207546FFF767
:10032000F9FFAE46050069465346C008C000854641
:1003300018B020B5FFF7DCFF60BC00274908B646BF
:100340000026C0C5C0C5C0C5C0C5C0C5C0C5C0C5E4
:10035000C0C5403D49008D4670470446C046C04672
:100360002046FFF7EFFED2B210B513029A1813041D
:100370009A1800F0BEF810BD002203098B422CD35E
:10038000030A8B4211D300239C464EE003460B43E5
:100390003CD4002243088B4231D303098B421CD347
:1003A000030A8B4201D394463FE0C3098B4201D339
:1003B000CB01C01A524183098B4201D38B01C01A71
:1003C000524143098B4201D34B01C01A52410309E8
:1003D0008B4201D30B01C01A5241C3088B4201D397
:1003E000CB00C01A524183088B4201D38B00C01A44
:1003F000524143088B4201D34B00C01A5241411A6B
:1004000000D201465241104670475DE0CA0F00D04D
:100410004942031000D34042534000229C46030946
:100420008B422DD3030A8B4212D3FC22890112BACC
:10043000030A8B420CD3890192118B4208D38901A4
:1004400092118B4204D389013AD0921100E08909BC
:10045000C3098B4201D3CB01C01A524183098B429D
:1004600001D38B01C01A524143098B4201D34B0186
:10047000C01A524103098B4201D30B01C01A5241E9
:10048000C3088B4201D3CB00C01A524183088B4270
:1004900001D38B00C01A5241D9D243088B4201D3F9
:1004A0004B00C01A5241411A00D2014663465241E4
:1004B0005B10104601D34042002B00D549427047E3
:1004C00063465B1000D3404201B50020C046C046E1
:1004D00002BD70477047704701E004C0091F04293E
:1004E000FBD28B0701D50280801CC90700D00270A7
:1004F000704700290BD0C30702D00270401C491E70
:10050000022904D3830702D50280801C891EE3E7F9
:100510000022EEE70022DFE701491820ABBEFEE72C
:1005200026000200704700000000000005200007C0
:100530000168034A1140034A8918016070470000AE
:10054000F00FFFFF055000000B48C16A0322114362
:10055000C1620520000701689203914301229203C2
:1005600089180160016803221203914301221203DA
:100570008918016070470000001002400D480168B2
:10058000890602D520214160704701680122890552
:1005900000290ADA51024160016B91430163302165
:1005A0004163016B114301637047012002498002DE
:1005B000086070470000024080E100E00F480168D9
:1005C000890403D5012149034160704701688A030A
:1005D0000121002A0CDA4A0442600848403082694E
:1005E0008A4382613022C26182690A438261704714
:1005F00001200349C002086070470000000002406B
:1006000080E100E00520000701680F229204914379
:10061000421289180160416AFF221202914311229D
:10062000920111434162C1680322120591430122E4
:1006300012058918C160FF211048A131C160C02195
:1006400081600D210160C1694906FCD5402101622C
:100650000B48816A0F221202914303221202891869
:100660008162064906482431803881630549C163A7
:10067000302141638321016370470000003801404D
:10068000800002409F01002010B52E48026B01211E
:100690000A430263426B8B031A434263826B4B042F
:1006A0001A438263C26A02231A43C262C26A0A43BD
:1006B000C262026809242243026002685207FCD524
:1006C000C160C2681207920F012AFAD1C268FD24E4
:1006D0002404A243C260C2683124A4042243C2603D
:1006E000194A14681C43146013680B431360816B30
:1006F000D20311438163154952140A604A68D20635
:10070000FCD4C168C160C168C160C168C1600268D1
:10071000012109068A43026002680A43026000E080
:1007200000BF01688901FBD5C16889088900C160E3
:10073000C16803221143C160C1680907890F0329F9
:10074000FAD110BD001002400020024000700040AD
:1007500010B5FFF799FF00F097F8FFF7E7FEFFF7F6
:1007600051FF00F003F8FFF7EFFE10BD10B50021B8
:100770000A2000F06FF901210B2000F06BF9012134
:100780000248C90201604910016010BD00E100E0AB
:1007900070B505242407A06901210843A0617D25C7
:1007A000ED00284600F0F2FB0321324800F00CFB7C
:1007B000642000F0EBFB3048017841290DD08078AF
:1007C0004F280AD0A06902263043A0612B4800F0D0
:1007D000DDFB2B480189314301812A4800F0D6FB1B
:1007E00024480521C01C00F0EFFA284600F0CEFB9B
:1007F00020480A21083000F0E7FA284600F0C6FB3E
:100800001C480F21123000F0DFFA284600F0BEFB32
:1008100018481321213000F0D7FA284600F0B6FB23
:1008200014480A21593000F0CFFA284600F0AEFBF8
:1008300010480B21633000F0C7FA284600F0A6FBF1
:100840000C481321343000F0BFFA284600F09EFB1C
:1008500008480921473000F0B7FA284600F096FB17
:1008600004480921503000F0AFFA284600F08EFB12
:1008700070BD00002C000020CF010020DC0500002E
:1008800020000050983A0000052000070168F0227F
:100890009143A0310160016AFF22120191431122AC
:1008A00092021143016219482221C160C021816076
:1008B0000D210160C1694906FCD54021016214493E
:1008C000886A0F22120390430122920380188862E3
:1008D0000E4A0F4828324038C2600E4A02610F2289
:1008E0008260922242608A6A0F231B049A4301238A
:1008F0009B04D2188A62054924310162064941628B
:100900003021C161832181617047000000440040B3
:100910008000024090010020CF01002000214448C7
:1009200000F08CFB434C002160624148103000F025
:1009300085FB414F0025A06260780028FCD0FFF7BE
:1009400027FF00F0A9F805202070A078E0815BE087
:1009500000F0A2F80320E0704EE041004118374853
:100960000646425C5A36F273B573081841787174C2
:1009700035748078F074B5741421304600F0C0FAF4
:10098000A0807075000A30752B212D4800F01CFAEC
:100990007D20000100F0FAFA0B212A4800F014FA39
:1009A0007D26F600304600F0F1FA244816215A3030
:1009B00000F00AFA304600F0E9FA0121224800F07E
:1009C00003FA304600F0E2FA2078401E2070B87832
:1009D000532804D10420E07025706570A5700C21A7
:1009E0001A4800F0F1F9FF20F53000F0CFFAB8789E
:1009F000452801D10120607020780028E089ACD121
:100A0000401EE08100F048F8E0890028A0D160781D
:100A10002646002801D00520F07000F03DF80C4873
:100A20000189012211430181B08900F0AFFA83E707
:100A3000081F000800000020CF0100202001002036
:100A40009A000020C5000020DC000020D00000201B
:100A5000200000508307FF22DB0E9A408907090E11
:100A6000994000280BDA0007000F0838830808486F
:100A70009B001818C36993430B43C36170478308F5
:100A800004489B001B18186890430843186070477F
:100A900000ED00E000E400E010B52022302107481E
:100AA000FFF761FC064881694908490081613021EE
:100AB000C161816901221143816110BDCF01002014
:100AC0004000024010B5202230210748FFF74BFCC0
:100AD0000648016B49084900016330214163016BFD
:100AE00001221143016310BD9F010020000002405C
:100AF000664E674C307855280AD066480078302812
:100B000001D0FFF7DFFF7D20C00000F03FFAF1E7E2
:100B1000FFF73EFE0320315C392901D8303900E06F
:100B200037393154401CC0B20B28F4D3F0783179F6
:100B3000000141187079B279000180182081F279A2
:100B4000337A1201D31863810918E180524D228A49
:100B50006A7012122A70A2696A7117122F71171423
:100B6000EF70120EAA70628AEA711212AA71A28A3A
:100B70006A7212122A72E2696A73170A2F73170CCB
:100B8000EF72120EAA72E973090AA9736874000A57
:100B90002874EB74180AA8741421284600F0B0F9E0
:100BA000A0806875000A28750125E570FFF78AFFA7
:100BB000FFF772FF2B21394800F006F97D20000174
:100BC00000F0E4F9334F387A45280BD00B21344834
:100BD00000F0FAF87D20C00000F0D8F9B878452878
:100BE00019D030E00520E0702E4800F0CFF9657094
:100BF000FFF768FFFFF750FFA078A3794100421884
:100C000025495A398B545118237A4B70A27A8A702D
:100C1000401CA07030E00520E070224800F0B6F9DA
:100C20006570FFF74FFFFFF737FFA078A27941000B
:100C3000431819495A39CA545918227A4A70A27A63
:100C40008A70401CA0701621134800F0BDF87D206A
:100C5000C00000F09BF90121134800F0B5F87D2099
:100C6000C00000F093F9FFF72DFFB878532801D1A9
:100C70000420E070FFF710FF0C210C4800F0A4F8EE
:100C80000B480189294301813DE700009F010020B5
:100C900000000020CF0100207A0100209A000020EF
:100CA000C5000020B80B0000DC000020D0000020B0
:100CB000200000500527414E3F07414C4025F07869
:100CC000030000F0CBF8067204121D5B6672B8696F
:100CD00080210843B861212000F058F92089802143
:100CE00008432081FF202D3045E0B8692843B861D2
:100CF000212000F04BF920892843208131483AE037
:100D0000B8692843B861212000F040F920892843C0
:100D10002081212000F03AF9B8692843B8612120E8
:100D200000F034F9208928432081212000F02EF999
:100D3000B8692843B861212000F028F920892843A8
:100D40002081212000F022F9B8692843B8612120D0
:100D500000F01CF9208928432081212000F016F999
:100D6000B8692843B861212000F010F92089284390
:100D70002081FF20F53000F009F9A0E7B869802153
:100D80000843B8610F4800F001F920898021084329
:100D900007E0B8692843B8610A4800F0F7F82089ED
:100DA000284320810020F07089E7208980210843B2
:100DB000208120892843208181E700000000002055
:100DC00020000050B80B000070B50C4605462022EC
:100DD00030210B48FFF7C7FA0A4A156150684008EE
:100DE0004000506094605168012001435160916956
:100DF000814391613021D16191690143916170BD5D
:100E0000CF010020400002401048016882151143C4
:100E10000160C1680E4A1140C16001680D4A11406D
:100E200001608168490849008160016801229204DB
:100E300091430160C168FD2212049143C160002109
:100E400001610549C003886070470000001002403E
:100E50000C40FF88F6FFF6FE00ED00E030B474466B
:100E6000641E2578641CAB4200D21D46635D5B00A6
:100E7000E31830BC184710B5002A06DA52005208B1
:100E8000D21DD308DB00102203E0D21C93089B0084
:100E90000C22002B02D09C188C4201D9012010BDDD
:100EA00082188360411802604160C91AD0188842D4
:100EB00002D810600246F9E70020106010BD000063
:100EC00080B505490978002904D0054F0068034919
:100ED000BC4600DF80BD0000FD000020FFFF0000D9
:100EE0000116000880B504490978002903D0034F92
:100EF0000068BC4600DF80BDFD0000202915000809
:100F000070B5044600200246074D09E0A35C060ABE
:100F100073405B00EB5A00024340521C98B292B2FD
:100F20008A42F3D370BD0000281F000870B50D463B
:100F3000040004D0002A02D12078012801D08020AA
:100F400070BD204600F054FA002805D029462046FE
:100F500000F004F8002070BD812070BD10B500F0D5
:100F6000CFFB00F0BDFB10BD00F01EF8FFF7F0FB5B
:100F70000021044800F062F80349086200F028F8F4
:100F8000FEE70000F81E00080000002080B5EFF327
:100F90000581002901D0822080BD024FBC4600DFC0
:100FA00080BD0000DD1C000880B5EFF3058000283F
:100FB00001D0822080BDEFF31480C00703D0034F1F
:100FC000BC4600DF80BD00F093FE80BDF11C000830
:100FD00080B588B0EFF30580002802D0822008B0E9
:100FE00080BDEFF3148081071248890F06D00129D4
:100FF0001AD0022910D0032918D112E008A981F3D0
:1010000009880078C0070AD0022080F31488BFF353
:101010004F8FBFF36F8F09E00078C00706D1032020
:10102000F3E70078C00701D0FF20D8E7024FBC46A5
:1010300000DFD4E738210008691D000880B5EFF310
:101040000582002A01D0002080BDEFF31482064BF8
:10105000D2075B78D20F1A4303D0044FBC4600DF9F
:1010600080BD00F0BBFE80BDFC000020DD1D00083F
:10107000034FBC4600DF034FBC4600DFFEE7000025
:10108000551E0008711E0008FEE7FEE707480168CC
:101090000748416100218161072101610548016A1A
:1010A000FF221206114301624017704734210008E5
:1010B00000E000E000ED00E070470146EFF3108033
:1010C000C207D20F72B60868002801D003680B600F
:1010D000002A00D162B6704710B500280ED0002952
:1010E0000CD00B318A089200016844680B1A1B1B54
:1010F000934205D2084609680029F5D1002010BDA9
:10110000002C07D0211803680B604A600160084674
:10111000083010BD4260083010BD000070B50D46AB
:1011200000280FD00849094C884204D222680146A1
:10113000104600F005FB20684570054800F0DFF818
:1011400000F0CAFB70BD0000FFFF0000040100209A
:10115000D809002010B50E480C4942680D480B68AC
:101160000068934204D00A60CB88421E9A188A8095
:101170008A8880B2824208D100200860044800F0CA
:10118000BEF80146024800F003FB10BD1801002024
:10119000D80900201401002070B51A4DE868002815
:1011A0002FD0A88A401EA882002624E0A06800282C
:1011B00008D0616841606068002802D0A168816041
:1011C0006660A6600F482146183800F0E1FAA08A50
:1011D000A8826078042804D10B49E08A0988401865
:1011E000A08201206070E068E860E068002801D01B
:1011F0000561E6602661A88A002802D1EC68002C0F
:10120000D4D170BDF00900201401002070B5040095
:101210000ED00C4DA17828680126827891420BD916
:1012200000F0D4FA28684670204600F055FB70BDE7
:10123000054800F064F8F8E766702146024800F0BF
:10124000A7FA70BD04010020D809002010B50321C1
:10125000FFF764FF10BD000010B50446008B084383
:1012600020836278618B062A17D0052A14D10A469A
:10127000104211D00240628388432083204600F050
:10128000CEFA01206070628B0821204600F0C3FA7C
:101290002146044800F07CFA10BD0A468243EBD098
:1012A00010BD0000D8090020814202D342688A4262
:1012B00001D801207047EFF31082D207D20F72B627
:1012C00003680B60016000D162B6002070470028FF
:1012D00010D000290ED00839002203E00246006831
:1012E000002807D08842F9D1002A05D00068106094
:1012F000002070470120704700214160F8E7014657
:10130000406842684A600B780022022B05D0012B0E
:1013100003D0032B01D0426070474368002B01D0FB
:10132000996042608260704770B50446154600209F
:101330002070012262702246A1702032117160601B
:10134000A060E06020612062A082E0822083608350
:101350005071E08C002803D10448FFF7AEFEE06234
:101360002946204600F01EF870BD000068030020EA
:10137000002801D0082901D2012070474118091F17
:10138000002201600A604260104670470348002155
:10139000016003490988C1807047000018010020DE
:1013A0003021000830B5C28C920803D10E4A128851
:1013B0001204920CC36A92009A18530700D5121FA8
:1013C000403A01231B06D363002391631C469D0012
:1013D0005B1C54510E2BFAD3C36913628262016302
:1013E000C06A0249016030BD2C210008A52E5AE2D6
:1013F000C1898089081A7047012202700022427058
:1014000082704260028142818281034A8903891885
:10141000090CC181704700000000FCFFF8B50446CC
:10142000406800270D46002844D060780126012836
:1014300037D0022813D0032832D10846FFF73DFEEB
:1014400005002DD02046FFF75AFF0446294600F03C
:10145000DFF96670204600F0E2F921461DE02046E3
:10146000FFF74DFF0546002100F0D2F92189E86918
:1014700089000919086172B6A089401CA08162B672
:101480002089401C80B22081E189884200D12781D7
:101490006E70284600F0C3F92946134800F078F929
:1014A000F8BD2046FFF72BFF04462A46102100F026
:1014B000B2F9CEE7A089E189884211D22089800063
:1014C0000019056172B6A089401CA08162B620890E
:1014D000401C80B22081E1898842E1D12781F8BD9A
:1014E0000320FFF7D1FDF8BDD809002010B5411C3D
:1014F00011D00A490A4C88420BD87D21C9004843C3
:1015000008490A688018401E1146FEF735FFA042C0
:1015100000D9204610BD0248401C10BD00093D0006
:10152000FEFF000044210008F8B50446408800286A
:1015300004D0314DA1682A68914201D0FF20F8BD46
:10154000401E0004000C608053D12968086AA04244
:1015500009D1E068086208E0C268A24202D1E268EC
:10156000C26002E010460028F6D12420405C0A6ADE
:1015700007E05368002B03D09B78834200D91846BC
:10158000D268002AF5D1887061680126002922D02E
:101590002046FFF7B4FE0746002100F039F938462F
:1015A00000F03DF96680A760386AE0603C6213484D
:1015B000296840688A788078824201D3384616E0EC
:1015C0000E4800F0E5F839460C4800F0E1F82868CC
:1015D00046707E700AE0094949688A782968824223
:1015E00007D9064800F0D4F8286846700020FFF7B5
:1015F0000DFE0020F8BD000004010020D8090020E5
:1016000070B50E46194D044641882868002907D058
:10161000A168814209D16088401C6080002070BDB3
:10162000A060016AE1600462F5E7002E0FD08A78BD
:101630008078824203D28870A06800F0D1F8606898
:10164000002806D02046296800F0A2F808E0012012
:1016500070BD286860602968002048602868846040
:1016600009213046FFF75AFDF1E700000401002090
:1016700070B51848012102685170006800F0A6F8A2
:10168000154C657813E0E800011948680278002AD3
:1016900017D0012A1AD000F0F1F8E0786D1C8542CD
:1016A00000D1002572B6A078401EA07062B6A07866
:1016B0000028E8D165700948FFF721FE00F00CF919
:1016C00070BD098989B2FFF7C7FDE6E78968FFF7B2
:1016D000A5FEE2E70401002008090020D809002047
:1016E00005480178002902D001214170704701208E
:1016F00002490007486070470C01002000ED00E03F
:1017000070B50E4BDD789C1C1E4672B69A78AA42C4
:1017100007D2521C22703278541CAC4200D10024F3
:10172000347062B6DC78944204D9D200D218916049
:10173000506070BD0220FFF7A7FC70BD08090020B3
:1017400010B5124AD368002B17D013469B8A04E0C9
:10175000002C12D02246A48AE318D4688B42F7D317
:10176000C460D0600261C468002C00D02061591AA6
:101770008182908A401A908210BD0024C460D0609B
:10178000C91A02619182848210BD0000F009002014
:1017900030B502780023022A03D0012A01D0032A9F
:1017A00000D101238C7800E010464268002A02D064
:1017B0009578A542F8D24A604160002B04D0002AF7
:1017C00000D09160886030BD0020FBE703494A6883
:1017D000426000228260486070470000D809002003
:1017E00010B583680446002B05D1607801280CD120
:1017F000064B03E09B6818780028FBD0204600F0D9
:1018000023F821461846FFF7C3FF10BDD809002072
:10181000806A01627047806A42620162704710B557
:10182000016900290FD0C268CA60C3680022002B7A
:1018300007D08B8A848A1B198B82C3681961C260A6
:1018400000E08A82026110BD8168002907D04268E9
:101850004A604168002901D0806888607047064965
:1018600006E04A68824202D14068486070471146EB
:101870000029F6D170470000D809002010B5416852
:1018800000290FD0FFF73BFD0446FFF7C8FF0120FA
:10189000607001462046FFF7BBFF21460348FFF773
:1018A00077FF10BD4188491C418010BDD809002038
:1018B00010B507480068816AC06A814203D3006896
:1018C0000449884202D00120FFF7DEFB10BD000072
:1018D00004010020A52E5AE202494860022141700D
:1018E000704700000401002070B500200446204924
:1018F000204A02E08300CC50401C13889842F9D360
:101900001D48342201881D48FFF7B5FA1C48012103
:101910000088C90780B242181A4801681A48FFF7C0
:10192000AAFA1A480822018819480068FFF7A3FAA2
:10193000184DFF20E870EC84174A00212846FFF775
:10194000F3FC164804210170446015480170C4601E
:1019500004618482134815490560022068701248AA
:10196000047044700978C170FFF710FD70BD00006D
:101970008C090020282100084C21000820020020AA
:101980002C21000850210008680300206421000871
:10199000E0000020A40900208B100008D8090020D6
:1019A000F009002004010020080900205821000847
:1019B00010B51448016AFF22120411430162C16983
:1019C000026A5202920E92061143C161FFF75EFB5A
:1019D0000D490028086013DB82080C499200511859
:1019E0000A688307DC0EFF23A3401A430A60C2067D
:1019F000D20E012191404011054A800080180160FB
:101A000010BD000000ED00E01001002000E400E047
:101A100000E100E010B50B48012102685170006838
:101A2000FFF7D4FEFFF796FB07480168491C0160E9
:101A3000FFF7B2FB00F03AFA0448FFF760FCFFF74B
:101A40004BFF10BD0401002014010020D809002024
:101A5000002805D0810702D10178002900D000209C
:101A60007047000030B50D4C0023626805E0158911
:101A70008D4204D813461268491B002AF7D189B257
:101A800002600181002A02D01589691A1181002B98
:101A900001D0186030BD606030BD0000FC00002047
:101AA000FFB5080681B01E4617460C46000E00D151
:101AB0004C1C1448FFF701FB050021D02002000C4C
:101AC000EF62E884EE61E1B22846019AFFF72CFC50
:101AD00001240D480D4906E0A2001218403AD26BCD
:101AE000002A04D0641C0A889442F5D90024A1007D
:101AF00008184038C563EC702846FFF787FB20467E
:101B000005B0F0BD200200208C090020282100082B
:101B1000F8B5484D0028296802D0CA78824238D1E9
:101B200000274F70FEF729FB29688862FFF7C0FE87
:101B30002868046A19E06068002815D02046FFF77D
:101B4000DEFB06460021FFF763FE3046FFF767FE27
:101B50000120707031463848FFF71AFE012161807C
:101B6000A660316AE1603462E468002CE3D1286841
:101B7000C1788A00314951184039CF63C16A304871
:101B8000FFF792FB29682F48CF62FFF78DFB2F608C
:101B90004AE02D49098888420ED8810027480F184D
:101BA000403FFD6B002D07D02846FFF74DFE28462D
:101BB000FFF735FE2C6A1DE0FF20F8BD60680028A5
:101BC00017D02046FFF79BFB06460021FFF720FEBB
:101BD0003046FFF724FE0120707031461648FFF7AB
:101BE000D7FD01216180A660316AE1603462E4685A
:101BF00000E0E468002CE1D1FC631148E96AFFF7DA
:101C000053FB29460F48EC62FFF74EFB0A48406839
:101C10008278084801688B789A4208D901224A7074
:101C200001680548FFF7B4FD0020FFF7EFFA002038
:101C3000F8BD000004010020D80900208C09002014
:101C400068030020200200202821000870B51B4DE9
:101C5000002811D01A4A1288904220D882001948D0
:101C600010184038C46B002C19D0A17024200155E5
:101C70002868A04205D014E02868817028682030C8
:101C80000171114840688078884215D90E4829684A
:101C9000FFF77EFD29680120487000200AE0FF2040
:101CA00070BD2046FFF79CFD6078012804D10648EE
:101CB000FFF725FBFFF7AAFA002070BD0401002002
:101CC000282100088C090020D8090020024800685B
:101CD000002800D0C07870470401002010B500280B
:101CE00005D0FFF703FC80B2FFF7B0FA402010BD2B
:101CF00010B5154C207800280DD11448400706D1A6
:101D0000134801681148FFF733FB002801D08520F4
:101D100010BDFFF7E9FD0F49FF20096888702078A2
:101D200000280BD100210C4800F042F80B49086054
:101D300000210B4800F052F80A4908600120207089
:101D40000020607010BD0000FC000020280800206A
:101D500054210008040100205C210008F800002044
:101D600000020020F400002070B50F4D68780028B4
:101D700001D0002070BD0D4C20682030017900207A
:101D8000FFF764FF2168C878FF2803D1886A2030F4
:101D900080F309886068002800D103C4FFF708FEBB
:101DA00001206870E5E70000FC000020040100202D
:101DB00010B5040008D02168002905D0606800280B
:101DC00002D00278002A01D0002010BD8900103115
:101DD00089B2FFF711FB606810BD000070B50E46B8
:101DE00004002ED0206800282BD00420205EC11CC7
:101DF00027DB032825DCE168002905D01248FFF71E
:101E00006BF9050016D000E000250421615EE06852
:101E1000091D0002014333462A462068FFF740FEB1
:101E2000002808D00949800040184038C06B084994
:101E3000826A516370BD002D03D029460248FFF726
:101E400046FA002070BD0000280800208C09002000
:101E50007110000810B5FFF739FF002804D00349BE
:101E6000800040184038C06B10BD00008C09002075
:101E700010B5FFF7EDFD002804D0C18C002903D078
:101E8000C46A02E0802010BD0024C078FFF740FE45
:101E9000FF2807D0002C03D021460348FFF717FA8C
:101EA000002010BD812010BD28080020F8B5104E7C
:101EB0007468002C16D020890E4F401E20810EE041
:101EC000254624687460002229463868FFF72EF8FA
:101ED0006879012807D001202871002C02D02089C0
:101EE0000028EDD0F8BD69892846FFF7BBFDF4E76F
:101EF000FC000020F80000201D0900080000000080
:101F00000100000000000000F10A000800000000CD
:101F10000100000000000000B50C000800000000F7
:101F20000100000000000000000005800F800A0092
:101F30001B801E0014001180338036003C00398065
:101F400028002D8027802200638066006C00698055
:101F500078007D8077807200500055805F805A0045
:101F60004B804E0044004180C380C600CC00C98035
:101F7000D800DD80D780D200F000F580FF80FA0025
:101F8000EB80EE00E400E180A000A580AF80AA0015
:101F9000BB80BE00B400B180938096009C00998005
:101FA00088008D8087808200838186018C018981F1
:101FB00098019D8197819201B001B581BF81BA01DD
:101FC000AB81AE01A401A181E001E581EF81EA01CD
:101FD000FB81FE01F401F181D381D601DC01D981BD
:101FE000C801CD81C781C201400145814F814A01AD
:101FF0005B815E0154015181738176017C0179819D
:1020000068016D8167816201238126012C0129818C
:1020100038013D8137813201100115811F811A017C
:102020000B810E0104010181038306030C03098364
:1020300018031D8317831203300335833F833A034C
:102040002B832E0324032183600365836F836A033C
:102050007B837E0374037183538356035C0359832C
:1020600048034D8347834203C003C583CF83CA031C
:10207000DB83DE03D403D183F383F603FC03F9830C
:10208000E803ED83E783E203A383A603AC03A983FC
:10209000B803BD83B783B203900395839F839A03EC
:1020A0008B838E0384038183800285828F828A02E0
:1020B0009B829E0294029182B382B602BC02B982D4
:1020C000A802AD82A782A202E382E602EC02E982C4
:1020D000F802FD82F782F202D002D582DF82DA02B4
:1020E000CB82CE02C402C182438246024C024982A4
:1020F00058025D8257825202700275827F827A0294
:102100006B826E0264026182200225822F822A0283
:102110003B823E0234023182138216021C02198273
:1021200008020D820782020206000000C8000101B9
:10213000050001009F0F00000100000002000100E7
:102140004B000400E8030000000000004401000010
:10215000C0040000E00000001000000000000000CB
:10216000100200200000000088210008000000206C
:102170002001000004010008A8220008200100201E
:10218000480F0000200100080500000000000000CA
:102190000000000060EA0000030003000A0C0000D9
:1021A00015CD5B073C73000000000000000000003C
:1021B0000000000041540D415445300D41542B4363
:1021C0004D47463D310D41542B435343533D20224F
:1021D00047534D220D41542B434D4744413D22442A
:1021E000454C20414C4C220D41542B435354543DFB
:1021F00022696E7465726E6574220D41542B4349D9
:102200004943520D41542B43494653520D41542BDF
:1022100043474154543F0D41542B43474154543D8F
:10222000310D41542B43495053544152543D225493
:102230004350222C223035342E3230332E32323974
:102240002E323530222C2238303831220D41542B99
:1022500043495053454E440D41542B434950434C40
:102260004F53450D1A00000000000000690F0008E0
:102270000000000001000000C80000000000000095
:10228000000000000000000000000000000000004E
:10229000000000000000000000000000000000003E
:0822A000000000000000000036
:04000005080000C12E
:00000001FF
